{
  "contractName": "APIConsumer",
  "abi": [
    {
      "inputs": [
        {
          "internalType": "address",
          "name": "oracleId_",
          "type": "address"
        },
        {
          "internalType": "string",
          "name": "jobId_",
          "type": "string"
        }
      ],
      "stateMutability": "nonpayable",
      "type": "constructor"
    },
    {
      "anonymous": false,
      "inputs": [
        {
          "indexed": true,
          "internalType": "bytes32",
          "name": "id",
          "type": "bytes32"
        }
      ],
      "name": "ChainlinkCancelled",
      "type": "event"
    },
    {
      "anonymous": false,
      "inputs": [
        {
          "indexed": true,
          "internalType": "bytes32",
          "name": "id",
          "type": "bytes32"
        }
      ],
      "name": "ChainlinkFulfilled",
      "type": "event"
    },
    {
      "anonymous": false,
      "inputs": [
        {
          "indexed": true,
          "internalType": "bytes32",
          "name": "id",
          "type": "bytes32"
        }
      ],
      "name": "ChainlinkRequested",
      "type": "event"
    },
    {
      "anonymous": false,
      "inputs": [
        {
          "indexed": true,
          "internalType": "address",
          "name": "from",
          "type": "address"
        },
        {
          "indexed": true,
          "internalType": "address",
          "name": "to",
          "type": "address"
        }
      ],
      "name": "OwnershipTransferRequested",
      "type": "event"
    },
    {
      "anonymous": false,
      "inputs": [
        {
          "indexed": true,
          "internalType": "address",
          "name": "from",
          "type": "address"
        },
        {
          "indexed": true,
          "internalType": "address",
          "name": "to",
          "type": "address"
        }
      ],
      "name": "OwnershipTransferred",
      "type": "event"
    },
    {
      "inputs": [],
      "name": "acceptOwnership",
      "outputs": [],
      "stateMutability": "nonpayable",
      "type": "function"
    },
    {
      "inputs": [],
      "name": "fee",
      "outputs": [
        {
          "internalType": "uint256",
          "name": "",
          "type": "uint256"
        }
      ],
      "stateMutability": "view",
      "type": "function",
      "constant": true
    },
    {
      "inputs": [],
      "name": "jobId",
      "outputs": [
        {
          "internalType": "string",
          "name": "",
          "type": "string"
        }
      ],
      "stateMutability": "view",
      "type": "function",
      "constant": true
    },
    {
      "inputs": [],
      "name": "oracleId",
      "outputs": [
        {
          "internalType": "address",
          "name": "",
          "type": "address"
        }
      ],
      "stateMutability": "view",
      "type": "function",
      "constant": true
    },
    {
      "inputs": [],
      "name": "owner",
      "outputs": [
        {
          "internalType": "address",
          "name": "",
          "type": "address"
        }
      ],
      "stateMutability": "view",
      "type": "function",
      "constant": true
    },
    {
      "inputs": [
        {
          "internalType": "address",
          "name": "to",
          "type": "address"
        }
      ],
      "name": "transferOwnership",
      "outputs": [],
      "stateMutability": "nonpayable",
      "type": "function"
    },
    {
      "inputs": [],
      "name": "yoyInflation",
      "outputs": [
        {
          "internalType": "string",
          "name": "",
          "type": "string"
        }
      ],
      "stateMutability": "view",
      "type": "function",
      "constant": true
    },
    {
      "inputs": [],
      "name": "requestYoyInflation",
      "outputs": [
        {
          "internalType": "bytes32",
          "name": "requestId",
          "type": "bytes32"
        }
      ],
      "stateMutability": "nonpayable",
      "type": "function"
    },
    {
      "inputs": [
        {
          "internalType": "bytes32",
          "name": "_requestId",
          "type": "bytes32"
        },
        {
          "internalType": "bytes",
          "name": "_inflation",
          "type": "bytes"
        }
      ],
      "name": "fulfillYoyInflation",
      "outputs": [],
      "stateMutability": "nonpayable",
      "type": "function"
    },
    {
      "inputs": [
        {
          "internalType": "address",
          "name": "_oracle",
          "type": "address"
        }
      ],
      "name": "changeOracle",
      "outputs": [],
      "stateMutability": "nonpayable",
      "type": "function"
    },
    {
      "inputs": [
        {
          "internalType": "string",
          "name": "_jobId",
          "type": "string"
        }
      ],
      "name": "changeJobId",
      "outputs": [],
      "stateMutability": "nonpayable",
      "type": "function"
    },
    {
      "inputs": [],
      "name": "getChainlinkToken",
      "outputs": [
        {
          "internalType": "address",
          "name": "",
          "type": "address"
        }
      ],
      "stateMutability": "view",
      "type": "function",
      "constant": true
    },
    {
      "inputs": [],
      "name": "withdrawLink",
      "outputs": [],
      "stateMutability": "nonpayable",
      "type": "function"
    }
  ],
  "bytecode": "0x608060405260016004553480156200001657600080fd5b5060405162002f5a38038062002f5a83398181016040528101906200003c919062000537565b338060008073ffffffffffffffffffffffffffffffffffffffff168273ffffffffffffffffffffffffffffffffffffffff1603620000b1576040517f08c379a0000000000000000000000000000000000000000000000000000000008152600401620000a890620005fe565b60405180910390fd5b81600660006101000a81548173ffffffffffffffffffffffffffffffffffffffff021916908373ffffffffffffffffffffffffffffffffffffffff160217905550600073ffffffffffffffffffffffffffffffffffffffff168173ffffffffffffffffffffffffffffffffffffffff161462000139576200013881620001ca60201b60201c565b5b5050506200016173326c977e6efc84e512bb9c30f76e30c160ed06fb620002fb60201b60201c565b81600960006101000a81548173ffffffffffffffffffffffffffffffffffffffff021916908373ffffffffffffffffffffffffffffffffffffffff16021790555080600a9081620001b391906200086b565b50662386f26fc10000600b819055505050620009c4565b3373ffffffffffffffffffffffffffffffffffffffff168173ffffffffffffffffffffffffffffffffffffffff16036200023b576040517f08c379a00000000000000000000000000000000000000000000000000000000081526004016200023290620009a2565b60405180910390fd5b80600760006101000a81548173ffffffffffffffffffffffffffffffffffffffff021916908373ffffffffffffffffffffffffffffffffffffffff1602179055508073ffffffffffffffffffffffffffffffffffffffff16600660009054906101000a900473ffffffffffffffffffffffffffffffffffffffff1673ffffffffffffffffffffffffffffffffffffffff167fed8889f560326eb138920d842192f0eb3dd22b4f139c87a2c57538e05bae127860405160405180910390a350565b80600260006101000a81548173ffffffffffffffffffffffffffffffffffffffff021916908373ffffffffffffffffffffffffffffffffffffffff16021790555050565b6000604051905090565b600080fd5b600080fd5b600073ffffffffffffffffffffffffffffffffffffffff82169050919050565b6000620003808262000353565b9050919050565b620003928162000373565b81146200039e57600080fd5b50565b600081519050620003b28162000387565b92915050565b600080fd5b600080fd5b6000601f19601f8301169050919050565b7f4e487b7100000000000000000000000000000000000000000000000000000000600052604160045260246000fd5b6200040d82620003c2565b810181811067ffffffffffffffff821117156200042f576200042e620003d3565b5b80604052505050565b6000620004446200033f565b905062000452828262000402565b919050565b600067ffffffffffffffff821115620004755762000474620003d3565b5b6200048082620003c2565b9050602081019050919050565b60005b83811015620004ad57808201518184015260208101905062000490565b60008484015250505050565b6000620004d0620004ca8462000457565b62000438565b905082815260208101848484011115620004ef57620004ee620003bd565b5b620004fc8482856200048d565b509392505050565b600082601f8301126200051c576200051b620003b8565b5b81516200052e848260208601620004b9565b91505092915050565b6000806040838503121562000551576200055062000349565b5b60006200056185828601620003a1565b925050602083015167ffffffffffffffff8111156200058557620005846200034e565b5b620005938582860162000504565b9150509250929050565b600082825260208201905092915050565b7f43616e6e6f7420736574206f776e657220746f207a65726f0000000000000000600082015250565b6000620005e66018836200059d565b9150620005f382620005ae565b602082019050919050565b600060208201905081810360008301526200061981620005d7565b9050919050565b600081519050919050565b7f4e487b7100000000000000000000000000000000000000000000000000000000600052602260045260246000fd5b600060028204905060018216806200067357607f821691505b6020821081036200068957620006886200062b565b5b50919050565b60008190508160005260206000209050919050565b60006020601f8301049050919050565b600082821b905092915050565b600060088302620006f37fffffffffffffffffffffffffffffffffffffffffffffffffffffffffffffffff82620006b4565b620006ff8683620006b4565b95508019841693508086168417925050509392505050565b6000819050919050565b6000819050919050565b60006200074c62000746620007408462000717565b62000721565b62000717565b9050919050565b6000819050919050565b62000768836200072b565b62000780620007778262000753565b848454620006c1565b825550505050565b600090565b6200079762000788565b620007a48184846200075d565b505050565b5b81811015620007cc57620007c06000826200078d565b600181019050620007aa565b5050565b601f8211156200081b57620007e5816200068f565b620007f084620006a4565b8101602085101562000800578190505b620008186200080f85620006a4565b830182620007a9565b50505b505050565b600082821c905092915050565b6000620008406000198460080262000820565b1980831691505092915050565b60006200085b83836200082d565b9150826002028217905092915050565b620008768262000620565b67ffffffffffffffff811115620008925762000891620003d3565b5b6200089e82546200065a565b620008ab828285620007d0565b600060209050601f831160018114620008e35760008415620008ce578287015190505b620008da85826200084d565b8655506200094a565b601f198416620008f3866200068f565b60005b828110156200091d57848901518255600182019150602085019450602081019050620008f6565b868310156200093d578489015162000939601f8916826200082d565b8355505b6001600288020188555050505b505050505050565b7f43616e6e6f74207472616e7366657220746f2073656c66000000000000000000600082015250565b60006200098a6017836200059d565b9150620009978262000952565b602082019050919050565b60006020820190508181036000830152620009bd816200097b565b9050919050565b61258680620009d46000396000f3fe608060405234801561001057600080fd5b50600436106100cf5760003560e01c80638dc654a21161008c578063bb694f1611610066578063bb694f16146101b6578063c2939d97146101d2578063ddca3f43146101f0578063f2fde38b1461020e576100cf565b80638dc654a2146101725780639063e2161461017c578063af5d945b14610198576100cf565b8063165d35e1146100d45780632121778d146100f257806347c421b51461011057806372582c8d1461012c57806379ba50971461014a5780638da5cb5b14610154575b600080fd5b6100dc61022a565b6040516100e991906114a9565b60405180910390f35b6100fa610239565b60405161010791906114a9565b60405180910390f35b61012a60048036038101906101259190611504565b61025f565b005b6101346102ab565b604051610141919061154a565b60405180910390f35b61015261047e565b005b61015c610615565b60405161016991906114a9565b60405180910390f35b61017a61063f565b005b610196600480360381019061019191906116ab565b61078c565b005b6101a06107a7565b6040516101ad9190611773565b60405180910390f35b6101d060048036038101906101cb9190611862565b610835565b005b6101da61094f565b6040516101e79190611773565b60405180910390f35b6101f86109dd565b60405161020591906118d7565b60405180910390f35b61022860048036038101906102239190611504565b6109e3565b005b60006102346109f7565b905090565b600960009054906101000a900473ffffffffffffffffffffffffffffffffffffffff1681565b610267610a21565b80600960006101000a81548173ffffffffffffffffffffffffffffffffffffffff021916908373ffffffffffffffffffffffffffffffffffffffff16021790555050565b6000806102ca600a6102bc906119ce565b3063bb694f1660e01b610ab3565b905061034b6040518060400160405280600781526020017f73657276696365000000000000000000000000000000000000000000000000008152506040518060400160405280601281526020017f747275666c6174696f6e2f63757272656e74000000000000000000000000000081525083610ae49092919063ffffffff16565b6103ca6040518060400160405280600781526020017f6b657970617468000000000000000000000000000000000000000000000000008152506040518060400160405280601581526020017f796561724f76657259656172496e666c6174696f6e000000000000000000000081525083610ae49092919063ffffffff16565b6104496040518060400160405280600381526020017f61626900000000000000000000000000000000000000000000000000000000008152506040518060400160405280600481526020017f6a736f6e0000000000000000000000000000000000000000000000000000000081525083610ae49092919063ffffffff16565b610478600960009054906101000a900473ffffffffffffffffffffffffffffffffffffffff1682600b54610b17565b91505090565b600760009054906101000a900473ffffffffffffffffffffffffffffffffffffffff1673ffffffffffffffffffffffffffffffffffffffff163373ffffffffffffffffffffffffffffffffffffffff161461050e576040517f08c379a000000000000000000000000000000000000000000000000000000000815260040161050590611a8b565b60405180910390fd5b6000600660009054906101000a900473ffffffffffffffffffffffffffffffffffffffff16905033600660006101000a81548173ffffffffffffffffffffffffffffffffffffffff021916908373ffffffffffffffffffffffffffffffffffffffff1602179055506000600760006101000a81548173ffffffffffffffffffffffffffffffffffffffff021916908373ffffffffffffffffffffffffffffffffffffffff1602179055503373ffffffffffffffffffffffffffffffffffffffff168173ffffffffffffffffffffffffffffffffffffffff167f8be0079c531659141344cd1fd0a4f28419497f9722a3daafe3b4186f6b6457e060405160405180910390a350565b6000600660009054906101000a900473ffffffffffffffffffffffffffffffffffffffff16905090565b610647610a21565b60006106516109f7565b90508073ffffffffffffffffffffffffffffffffffffffff1663a9059cbb338373ffffffffffffffffffffffffffffffffffffffff166370a08231306040518263ffffffff1660e01b81526004016106a991906114a9565b602060405180830381865afa1580156106c6573d6000803e3d6000fd5b505050506040513d601f19601f820116820180604052508101906106ea9190611ad7565b6040518363ffffffff1660e01b8152600401610707929190611b04565b6020604051808303816000875af1158015610726573d6000803e3d6000fd5b505050506040513d601f19601f8201168201806040525081019061074a9190611b65565b610789576040517f08c379a000000000000000000000000000000000000000000000000000000000815260040161078090611bde565b60405180910390fd5b50565b610794610a21565b80600a90816107a39190611d9d565b5050565b600880546107b490611921565b80601f01602080910402602001604051908101604052809291908181526020018280546107e090611921565b801561082d5780601f106108025761010080835404028352916020019161082d565b820191906000526020600020905b81548152906001019060200180831161081057829003601f168201915b505050505081565b816005600082815260200190815260200160002060009054906101000a900473ffffffffffffffffffffffffffffffffffffffff1673ffffffffffffffffffffffffffffffffffffffff163373ffffffffffffffffffffffffffffffffffffffff16146108d7576040517f08c379a00000000000000000000000000000000000000000000000000000000081526004016108ce90611ee1565b60405180910390fd5b6005600082815260200190815260200160002060006101000a81549073ffffffffffffffffffffffffffffffffffffffff0219169055807f7cc135e0cebb02c3480ae5d74d377283180a2601f8f644edf7987b009316c63a60405160405180910390a281600890816109499190611d9d565b50505050565b600a805461095c90611921565b80601f016020809104026020016040519081016040528092919081815260200182805461098890611921565b80156109d55780601f106109aa576101008083540402835291602001916109d5565b820191906000526020600020905b8154815290600101906020018083116109b857829003601f168201915b505050505081565b600b5481565b6109eb610a21565b6109f481610be3565b50565b6000600260009054906101000a900473ffffffffffffffffffffffffffffffffffffffff16905090565b600660009054906101000a900473ffffffffffffffffffffffffffffffffffffffff1673ffffffffffffffffffffffffffffffffffffffff163373ffffffffffffffffffffffffffffffffffffffff1614610ab1576040517f08c379a0000000000000000000000000000000000000000000000000000000008152600401610aa890611f4d565b60405180910390fd5b565b610abb6113e1565b610ac36113e1565b610ada85858584610d11909392919063ffffffff16565b9150509392505050565b610afb828460800151610dc190919063ffffffff16565b610b12818460800151610dc190919063ffffffff16565b505050565b6000806004549050600181610b2c9190611f9c565b6004819055506000634042994660e01b60008087600001513089604001518760018c6080015160000151604051602401610b6d989796959493929190612060565b604051602081830303815290604052907bffffffffffffffffffffffffffffffffffffffffffffffffffffffff19166020820180517bffffffffffffffffffffffffffffffffffffffffffffffffffffffff83818316178352505050509050610bd886838684610de6565b925050509392505050565b3373ffffffffffffffffffffffffffffffffffffffff168173ffffffffffffffffffffffffffffffffffffffff1603610c51576040517f08c379a0000000000000000000000000000000000000000000000000000000008152600401610c4890612131565b60405180910390fd5b80600760006101000a81548173ffffffffffffffffffffffffffffffffffffffff021916908373ffffffffffffffffffffffffffffffffffffffff1602179055508073ffffffffffffffffffffffffffffffffffffffff16600660009054906101000a900473ffffffffffffffffffffffffffffffffffffffff1673ffffffffffffffffffffffffffffffffffffffff167fed8889f560326eb138920d842192f0eb3dd22b4f139c87a2c57538e05bae127860405160405180910390a350565b610d196113e1565b610d298560800151610100610f7b565b508385600001818152505082856020019073ffffffffffffffffffffffffffffffffffffffff16908173ffffffffffffffffffffffffffffffffffffffff16815250508185604001907bffffffffffffffffffffffffffffffffffffffffffffffffffffffff191690817bffffffffffffffffffffffffffffffffffffffffffffffffffffffff191681525050849050949350505050565b610dce8260038351610fe5565b610de1818361116a90919063ffffffff16565b505050565b60003084604051602001610dfb929190612200565b604051602081830303815290604052805190602001209050846005600083815260200190815260200160002060006101000a81548173ffffffffffffffffffffffffffffffffffffffff021916908373ffffffffffffffffffffffffffffffffffffffff160217905550807fb5e6e01e79f91267dc17b4e6314d5d4d03593d2ceee0fbb452b750bd70ea5af960405160405180910390a2600260009054906101000a900473ffffffffffffffffffffffffffffffffffffffff1673ffffffffffffffffffffffffffffffffffffffff16634000aea08685856040518463ffffffff1660e01b8152600401610ef19392919061222c565b6020604051808303816000875af1158015610f10573d6000803e3d6000fd5b505050506040513d601f19601f82011682018060405250810190610f349190611b65565b610f73576040517f08c379a0000000000000000000000000000000000000000000000000000000008152600401610f6a906122dc565b60405180910390fd5b949350505050565b610f8361144e565b6000602083610f92919061232b565b14610fbe57602082610fa4919061232b565b6020610fb0919061235c565b82610fbb9190611f9c565b91505b81836020018181525050604051808452600081528281016020016040525082905092915050565b60178167ffffffffffffffff161161101c576110168160058460ff16901b60ff16178461118c90919063ffffffff16565b50611165565b60ff8167ffffffffffffffff16116110725761104b601860058460ff16901b178461118c90919063ffffffff16565b5061106c8167ffffffffffffffff166001856111ac9092919063ffffffff16565b50611164565b61ffff8167ffffffffffffffff16116110c9576110a2601960058460ff16901b178461118c90919063ffffffff16565b506110c38167ffffffffffffffff166002856111ac9092919063ffffffff16565b50611163565b63ffffffff8167ffffffffffffffff1611611122576110fb601a60058460ff16901b178461118c90919063ffffffff16565b5061111c8167ffffffffffffffff166004856111ac9092919063ffffffff16565b50611162565b61113f601b60058460ff16901b178461118c90919063ffffffff16565b506111608167ffffffffffffffff166008856111ac9092919063ffffffff16565b505b5b5b5b505050565b61117261144e565b611184838460000151518485516111ce565b905092915050565b61119461144e565b6111a483846000015151846112bd565b905092915050565b6111b461144e565b6111c5848560000151518585611313565b90509392505050565b6111d661144e565b82518211156111e457600080fd5b846020015182856111f59190611f9c565b111561122a5761122985600261121a886020015188876112159190611f9c565b6113a1565b6112249190612390565b6113bd565b5b6000808651805187602083010193508088870111156112495787860182525b60208701925050505b60208410611290578051825260208261126b9190611f9c565b915060208161127a9190611f9c565b9050602084611289919061235c565b9350611252565b60006001856020036101000a03905080198251168184511681811785525050508692505050949350505050565b6112c561144e565b836020015183106112eb576112ea84600286602001516112e59190612390565b6113bd565b5b83518051602085830101848153818603611306576001820183525b5050508390509392505050565b61131b61144e565b8460200151848361132c9190611f9c565b11156113545761135385600286856113449190611f9c565b61134e9190612390565b6113bd565b5b60006001836101006113669190612505565b611370919061235c565b905085518386820101858319825116178152815185880111156113935784870182525b505085915050949350505050565b6000818311156113b3578290506113b7565b8190505b92915050565b6000826000015190506113d08383610f7b565b506113db838261116a565b50505050565b6040518060a0016040528060008019168152602001600073ffffffffffffffffffffffffffffffffffffffff16815260200160007bffffffffffffffffffffffffffffffffffffffffffffffffffffffff191681526020016000815260200161144861144e565b81525090565b604051806040016040528060608152602001600081525090565b600073ffffffffffffffffffffffffffffffffffffffff82169050919050565b600061149382611468565b9050919050565b6114a381611488565b82525050565b60006020820190506114be600083018461149a565b92915050565b6000604051905090565b600080fd5b600080fd5b6114e181611488565b81146114ec57600080fd5b50565b6000813590506114fe816114d8565b92915050565b60006020828403121561151a576115196114ce565b5b6000611528848285016114ef565b91505092915050565b6000819050919050565b61154481611531565b82525050565b600060208201905061155f600083018461153b565b92915050565b600080fd5b600080fd5b6000601f19601f8301169050919050565b7f4e487b7100000000000000000000000000000000000000000000000000000000600052604160045260246000fd5b6115b88261156f565b810181811067ffffffffffffffff821117156115d7576115d6611580565b5b80604052505050565b60006115ea6114c4565b90506115f682826115af565b919050565b600067ffffffffffffffff82111561161657611615611580565b5b61161f8261156f565b9050602081019050919050565b82818337600083830152505050565b600061164e611649846115fb565b6115e0565b90508281526020810184848401111561166a5761166961156a565b5b61167584828561162c565b509392505050565b600082601f83011261169257611691611565565b5b81356116a284826020860161163b565b91505092915050565b6000602082840312156116c1576116c06114ce565b5b600082013567ffffffffffffffff8111156116df576116de6114d3565b5b6116eb8482850161167d565b91505092915050565b600081519050919050565b600082825260208201905092915050565b60005b8381101561172e578082015181840152602081019050611713565b60008484015250505050565b6000611745826116f4565b61174f81856116ff565b935061175f818560208601611710565b6117688161156f565b840191505092915050565b6000602082019050818103600083015261178d818461173a565b905092915050565b61179e81611531565b81146117a957600080fd5b50565b6000813590506117bb81611795565b92915050565b600067ffffffffffffffff8211156117dc576117db611580565b5b6117e58261156f565b9050602081019050919050565b6000611805611800846117c1565b6115e0565b9050828152602081018484840111156118215761182061156a565b5b61182c84828561162c565b509392505050565b600082601f83011261184957611848611565565b5b81356118598482602086016117f2565b91505092915050565b60008060408385031215611879576118786114ce565b5b6000611887858286016117ac565b925050602083013567ffffffffffffffff8111156118a8576118a76114d3565b5b6118b485828601611834565b9150509250929050565b6000819050919050565b6118d1816118be565b82525050565b60006020820190506118ec60008301846118c8565b92915050565b7f4e487b7100000000000000000000000000000000000000000000000000000000600052602260045260246000fd5b6000600282049050600182168061193957607f821691505b60208210810361194c5761194b6118f2565b5b50919050565b60008154905061196181611921565b9050919050565b60008190508160005260206000209050919050565b60008160001c9050919050565b6000819050919050565b60006119a76119a28361197d565b61198a565b9050919050565b60006119ba8254611994565b9050919050565b600082821b905092915050565b60006119d982611952565b82601f8211156119ef576119ec84611968565b90505b6119f8816119ae565b92506020821015611a3857611a337fffffffffffffffffffffffffffffffffffffffffffffffffffffffffffffffff836020036008026119c1565b831692505b5050919050565b7f4d7573742062652070726f706f736564206f776e657200000000000000000000600082015250565b6000611a756016836116ff565b9150611a8082611a3f565b602082019050919050565b60006020820190508181036000830152611aa481611a68565b9050919050565b611ab4816118be565b8114611abf57600080fd5b50565b600081519050611ad181611aab565b92915050565b600060208284031215611aed57611aec6114ce565b5b6000611afb84828501611ac2565b91505092915050565b6000604082019050611b19600083018561149a565b611b2660208301846118c8565b9392505050565b60008115159050919050565b611b4281611b2d565b8114611b4d57600080fd5b50565b600081519050611b5f81611b39565b92915050565b600060208284031215611b7b57611b7a6114ce565b5b6000611b8984828501611b50565b91505092915050565b7f4661696c656420746f207472616e736665720000000000000000000000000000600082015250565b6000611bc86012836116ff565b9150611bd382611b92565b602082019050919050565b60006020820190508181036000830152611bf781611bbb565b9050919050565b60008190508160005260206000209050919050565b60006020601f8301049050919050565b600060088302611c537fffffffffffffffffffffffffffffffffffffffffffffffffffffffffffffffff826119c1565b611c5d86836119c1565b95508019841693508086168417925050509392505050565b6000819050919050565b6000611c9a611c95611c90846118be565b611c75565b6118be565b9050919050565b6000819050919050565b611cb483611c7f565b611cc8611cc082611ca1565b848454611c23565b825550505050565b600090565b611cdd611cd0565b611ce8818484611cab565b505050565b5b81811015611d0c57611d01600082611cd5565b600181019050611cee565b5050565b601f821115611d5157611d2281611bfe565b611d2b84611c13565b81016020851015611d3a578190505b611d4e611d4685611c13565b830182611ced565b50505b505050565b600082821c905092915050565b6000611d7460001984600802611d56565b1980831691505092915050565b6000611d8d8383611d63565b9150826002028217905092915050565b611da6826116f4565b67ffffffffffffffff811115611dbf57611dbe611580565b5b611dc98254611921565b611dd4828285611d10565b600060209050601f831160018114611e075760008415611df5578287015190505b611dff8582611d81565b865550611e67565b601f198416611e1586611bfe565b60005b82811015611e3d57848901518255600182019150602085019450602081019050611e18565b86831015611e5a5784890151611e56601f891682611d63565b8355505b6001600288020188555050505b505050505050565b7f536f75726365206d75737420626520746865206f7261636c65206f662074686560008201527f2072657175657374000000000000000000000000000000000000000000000000602082015250565b6000611ecb6028836116ff565b9150611ed682611e6f565b604082019050919050565b60006020820190508181036000830152611efa81611ebe565b9050919050565b7f4f6e6c792063616c6c61626c65206279206f776e657200000000000000000000600082015250565b6000611f376016836116ff565b9150611f4282611f01565b602082019050919050565b60006020820190508181036000830152611f6681611f2a565b9050919050565b7f4e487b7100000000000000000000000000000000000000000000000000000000600052601160045260246000fd5b6000611fa7826118be565b9150611fb2836118be565b9250828201905080821115611fca57611fc9611f6d565b5b92915050565b60007fffffffff0000000000000000000000000000000000000000000000000000000082169050919050565b61200581611fd0565b82525050565b600081519050919050565b600082825260208201905092915050565b60006120328261200b565b61203c8185612016565b935061204c818560208601611710565b6120558161156f565b840191505092915050565b600061010082019050612076600083018b61149a565b612083602083018a6118c8565b612090604083018961153b565b61209d606083018861149a565b6120aa6080830187611ffc565b6120b760a08301866118c8565b6120c460c08301856118c8565b81810360e08301526120d68184612027565b90509998505050505050505050565b7f43616e6e6f74207472616e7366657220746f2073656c66000000000000000000600082015250565b600061211b6017836116ff565b9150612126826120e5565b602082019050919050565b6000602082019050818103600083015261214a8161210e565b9050919050565b600061216c61216761216284611468565b611c75565b611468565b9050919050565b600061217e82612151565b9050919050565b600061219082612173565b9050919050565b60008160601b9050919050565b60006121af82612197565b9050919050565b60006121c1826121a4565b9050919050565b6121d96121d482612185565b6121b6565b82525050565b6000819050919050565b6121fa6121f5826118be565b6121df565b82525050565b600061220c82856121c8565b60148201915061221c82846121e9565b6020820191508190509392505050565b6000606082019050612241600083018661149a565b61224e60208301856118c8565b81810360408301526122608184612027565b9050949350505050565b7f756e61626c6520746f207472616e73666572416e6443616c6c20746f206f726160008201527f636c650000000000000000000000000000000000000000000000000000000000602082015250565b60006122c66023836116ff565b91506122d18261226a565b604082019050919050565b600060208201905081810360008301526122f5816122b9565b9050919050565b7f4e487b7100000000000000000000000000000000000000000000000000000000600052601260045260246000fd5b6000612336826118be565b9150612341836118be565b925082612351576123506122fc565b5b828206905092915050565b6000612367826118be565b9150612372836118be565b925082820390508181111561238a57612389611f6d565b5b92915050565b600061239b826118be565b91506123a6836118be565b92508282026123b4816118be565b915082820484148315176123cb576123ca611f6d565b5b5092915050565b60008160011c9050919050565b6000808291508390505b60018511156124295780860481111561240557612404611f6d565b5b60018516156124145780820291505b8081029050612422856123d2565b94506123e9565b94509492505050565b60008261244257600190506124fe565b8161245057600090506124fe565b816001811461246657600281146124705761249f565b60019150506124fe565b60ff84111561248257612481611f6d565b5b8360020a91508482111561249957612498611f6d565b5b506124fe565b5060208310610133831016604e8410600b84101617156124d45782820a9050838111156124cf576124ce611f6d565b5b6124fe565b6124e184848460016123df565b925090508184048111156124f8576124f7611f6d565b5b81810290505b9392505050565b6000612510826118be565b915061251b836118be565b92506125487fffffffffffffffffffffffffffffffffffffffffffffffffffffffffffffffff8484612432565b90509291505056fea264697066735822122053701cbc01a6077ef84d29ee0e9406f171bd7789d4d16ef841dfb2dea5a38c6d64736f6c63430008110033",
  "immutableReferences": {},
  "source": "// SPDX-License-Identifier: MIT\npragma solidity ^0.8.0;\n\nimport \"@chainlink/contracts/src/v0.8/ChainlinkClient.sol\";\nimport \"@chainlink/contracts/src/v0.8/ConfirmedOwner.sol\";\n\n\ncontract APIConsumer is ChainlinkClient, ConfirmedOwner {\n  using Chainlink for Chainlink.Request;\n  \n  string public yoyInflation;\n  address public oracleId;\n  string public jobId;\n  uint256 public fee;\n\n  constructor(address oracleId_, string memory jobId_) ConfirmedOwner(msg.sender) {\n    // setPublicChainlinkToken();\n\n    setChainlinkToken(0x326C977E6efc84E512bB9C30f76E30c160eD06FB);\n\n    oracleId = oracleId_;\n    jobId = jobId_;\n    fee = 0.01 * 10 ** 18;\n  } \n\n        \n  function requestYoyInflation() public returns (bytes32 requestId) {\n    Chainlink.Request memory req = buildChainlinkRequest(\n      bytes32(bytes(jobId)),\n      address(this),\n      this.fulfillYoyInflation.selector\n    );\n    req.add(\"service\", \"truflation/current\");\n    req.add(\"keypath\", \"yearOverYearInflation\");\n    req.add(\"abi\", \"json\");\n    return sendChainlinkRequestTo(oracleId, req, fee);\n  }\n\n  function fulfillYoyInflation(\n    bytes32 _requestId,\n    bytes memory _inflation\n  ) public recordChainlinkFulfillment(_requestId) {\n    yoyInflation = string(_inflation);\n  }\n\n  function changeOracle(address _oracle) public onlyOwner {\n    oracleId = _oracle;\n  }\n\n  function changeJobId(string memory _jobId) public onlyOwner {\n    jobId = _jobId;\n  }\n\n  function getChainlinkToken() public view returns (address) {\n    return chainlinkTokenAddress();\n  }\n\n  function withdrawLink() public onlyOwner {\n    LinkTokenInterface link = LinkTokenInterface(chainlinkTokenAddress());\n    require(link.transfer(msg.sender, link.balanceOf(address(this))),\n    \"Failed to transfer\");\n  }\n}",
  "sourcePath": "/Users/rahulbansal/Desktop/SustainDAO/contracts/APIConsumer.sol",
  "compiler": {
    "name": "solc",
    "version": "0.8.17+commit.8df45f5f.Emscripten.clang"
  },
  "schemaVersion": "3.4.8",
  "updatedAt": "2022-11-18T17:49:28.284Z",
  "networkType": "ethereum",
  "devdoc": {
    "kind": "dev",
    "methods": {},
    "version": 1
  },
  "userdoc": {
    "kind": "user",
    "methods": {
      "acceptOwnership()": {
        "notice": "Allows an ownership transfer to be completed by the recipient."
      },
      "owner()": {
        "notice": "Get the current owner"
      },
      "transferOwnership(address)": {
        "notice": "Allows an owner to begin transferring ownership to a new address, pending."
      }
    },
    "version": 1
  }
}