{
  "contractName": "MintNFT",
  "abi": [
    {
      "inputs": [],
      "stateMutability": "nonpayable",
      "type": "constructor"
    },
    {
      "anonymous": false,
      "inputs": [
        {
          "indexed": true,
          "internalType": "address",
          "name": "owner",
          "type": "address"
        },
        {
          "indexed": true,
          "internalType": "address",
          "name": "approved",
          "type": "address"
        },
        {
          "indexed": true,
          "internalType": "uint256",
          "name": "tokenId",
          "type": "uint256"
        }
      ],
      "name": "Approval",
      "type": "event"
    },
    {
      "anonymous": false,
      "inputs": [
        {
          "indexed": true,
          "internalType": "address",
          "name": "owner",
          "type": "address"
        },
        {
          "indexed": true,
          "internalType": "address",
          "name": "operator",
          "type": "address"
        },
        {
          "indexed": false,
          "internalType": "bool",
          "name": "approved",
          "type": "bool"
        }
      ],
      "name": "ApprovalForAll",
      "type": "event"
    },
    {
      "anonymous": false,
      "inputs": [
        {
          "indexed": true,
          "internalType": "address",
          "name": "from",
          "type": "address"
        },
        {
          "indexed": true,
          "internalType": "address",
          "name": "to",
          "type": "address"
        },
        {
          "indexed": true,
          "internalType": "uint256",
          "name": "tokenId",
          "type": "uint256"
        }
      ],
      "name": "Transfer",
      "type": "event"
    },
    {
      "inputs": [
        {
          "internalType": "address",
          "name": "to",
          "type": "address"
        },
        {
          "internalType": "uint256",
          "name": "tokenId",
          "type": "uint256"
        }
      ],
      "name": "approve",
      "outputs": [],
      "stateMutability": "nonpayable",
      "type": "function"
    },
    {
      "inputs": [
        {
          "internalType": "address",
          "name": "owner",
          "type": "address"
        }
      ],
      "name": "balanceOf",
      "outputs": [
        {
          "internalType": "uint256",
          "name": "",
          "type": "uint256"
        }
      ],
      "stateMutability": "view",
      "type": "function",
      "constant": true
    },
    {
      "inputs": [
        {
          "internalType": "uint256",
          "name": "tokenId",
          "type": "uint256"
        }
      ],
      "name": "getApproved",
      "outputs": [
        {
          "internalType": "address",
          "name": "",
          "type": "address"
        }
      ],
      "stateMutability": "view",
      "type": "function",
      "constant": true
    },
    {
      "inputs": [
        {
          "internalType": "address",
          "name": "owner",
          "type": "address"
        },
        {
          "internalType": "address",
          "name": "operator",
          "type": "address"
        }
      ],
      "name": "isApprovedForAll",
      "outputs": [
        {
          "internalType": "bool",
          "name": "",
          "type": "bool"
        }
      ],
      "stateMutability": "view",
      "type": "function",
      "constant": true
    },
    {
      "inputs": [],
      "name": "mintPrice",
      "outputs": [
        {
          "internalType": "uint256",
          "name": "",
          "type": "uint256"
        }
      ],
      "stateMutability": "view",
      "type": "function",
      "constant": true
    },
    {
      "inputs": [],
      "name": "name",
      "outputs": [
        {
          "internalType": "string",
          "name": "",
          "type": "string"
        }
      ],
      "stateMutability": "view",
      "type": "function",
      "constant": true
    },
    {
      "inputs": [
        {
          "internalType": "uint256",
          "name": "tokenId",
          "type": "uint256"
        }
      ],
      "name": "ownerOf",
      "outputs": [
        {
          "internalType": "address",
          "name": "",
          "type": "address"
        }
      ],
      "stateMutability": "view",
      "type": "function",
      "constant": true
    },
    {
      "inputs": [
        {
          "internalType": "address",
          "name": "from",
          "type": "address"
        },
        {
          "internalType": "address",
          "name": "to",
          "type": "address"
        },
        {
          "internalType": "uint256",
          "name": "tokenId",
          "type": "uint256"
        }
      ],
      "name": "safeTransferFrom",
      "outputs": [],
      "stateMutability": "nonpayable",
      "type": "function"
    },
    {
      "inputs": [
        {
          "internalType": "address",
          "name": "from",
          "type": "address"
        },
        {
          "internalType": "address",
          "name": "to",
          "type": "address"
        },
        {
          "internalType": "uint256",
          "name": "tokenId",
          "type": "uint256"
        },
        {
          "internalType": "bytes",
          "name": "data",
          "type": "bytes"
        }
      ],
      "name": "safeTransferFrom",
      "outputs": [],
      "stateMutability": "nonpayable",
      "type": "function"
    },
    {
      "inputs": [
        {
          "internalType": "address",
          "name": "operator",
          "type": "address"
        },
        {
          "internalType": "bool",
          "name": "approved",
          "type": "bool"
        }
      ],
      "name": "setApprovalForAll",
      "outputs": [],
      "stateMutability": "nonpayable",
      "type": "function"
    },
    {
      "inputs": [],
      "name": "symbol",
      "outputs": [
        {
          "internalType": "string",
          "name": "",
          "type": "string"
        }
      ],
      "stateMutability": "view",
      "type": "function",
      "constant": true
    },
    {
      "inputs": [
        {
          "internalType": "uint256",
          "name": "index",
          "type": "uint256"
        }
      ],
      "name": "tokenByIndex",
      "outputs": [
        {
          "internalType": "uint256",
          "name": "",
          "type": "uint256"
        }
      ],
      "stateMutability": "view",
      "type": "function",
      "constant": true
    },
    {
      "inputs": [
        {
          "internalType": "address",
          "name": "owner",
          "type": "address"
        },
        {
          "internalType": "uint256",
          "name": "index",
          "type": "uint256"
        }
      ],
      "name": "tokenOfOwnerByIndex",
      "outputs": [
        {
          "internalType": "uint256",
          "name": "",
          "type": "uint256"
        }
      ],
      "stateMutability": "view",
      "type": "function",
      "constant": true
    },
    {
      "inputs": [],
      "name": "totalSupply",
      "outputs": [
        {
          "internalType": "uint256",
          "name": "",
          "type": "uint256"
        }
      ],
      "stateMutability": "view",
      "type": "function",
      "constant": true
    },
    {
      "inputs": [
        {
          "internalType": "address",
          "name": "from",
          "type": "address"
        },
        {
          "internalType": "address",
          "name": "to",
          "type": "address"
        },
        {
          "internalType": "uint256",
          "name": "tokenId",
          "type": "uint256"
        }
      ],
      "name": "transferFrom",
      "outputs": [],
      "stateMutability": "nonpayable",
      "type": "function"
    },
    {
      "inputs": [
        {
          "internalType": "uint256",
          "name": "tokenId",
          "type": "uint256"
        }
      ],
      "name": "tokenURI",
      "outputs": [
        {
          "internalType": "string",
          "name": "",
          "type": "string"
        }
      ],
      "stateMutability": "view",
      "type": "function",
      "constant": true
    },
    {
      "inputs": [
        {
          "internalType": "bytes4",
          "name": "interfaceId",
          "type": "bytes4"
        }
      ],
      "name": "supportsInterface",
      "outputs": [
        {
          "internalType": "bool",
          "name": "",
          "type": "bool"
        }
      ],
      "stateMutability": "view",
      "type": "function",
      "constant": true
    },
    {
      "inputs": [
        {
          "internalType": "string",
          "name": "_uri",
          "type": "string"
        }
      ],
      "name": "mint",
      "outputs": [],
      "stateMutability": "payable",
      "type": "function",
      "payable": true
    }
  ],
  "bytecode": "0x60806040523480156200001157600080fd5b506040518060400160405280600a81526020017f5375737461696e44414f000000000000000000000000000000000000000000008152506040518060400160405280600481526020017f5344414f0000000000000000000000000000000000000000000000000000000081525081600090816200008f919062000324565b508060019081620000a1919062000324565b5050506200040b565b600081519050919050565b7f4e487b7100000000000000000000000000000000000000000000000000000000600052604160045260246000fd5b7f4e487b7100000000000000000000000000000000000000000000000000000000600052602260045260246000fd5b600060028204905060018216806200012c57607f821691505b602082108103620001425762000141620000e4565b5b50919050565b60008190508160005260206000209050919050565b60006020601f8301049050919050565b600082821b905092915050565b600060088302620001ac7fffffffffffffffffffffffffffffffffffffffffffffffffffffffffffffffff826200016d565b620001b886836200016d565b95508019841693508086168417925050509392505050565b6000819050919050565b6000819050919050565b600062000205620001ff620001f984620001d0565b620001da565b620001d0565b9050919050565b6000819050919050565b6200022183620001e4565b6200023962000230826200020c565b8484546200017a565b825550505050565b600090565b6200025062000241565b6200025d81848462000216565b505050565b5b8181101562000285576200027960008262000246565b60018101905062000263565b5050565b601f821115620002d4576200029e8162000148565b620002a9846200015d565b81016020851015620002b9578190505b620002d1620002c8856200015d565b83018262000262565b50505b505050565b600082821c905092915050565b6000620002f960001984600802620002d9565b1980831691505092915050565b6000620003148383620002e6565b9150826002028217905092915050565b6200032f82620000aa565b67ffffffffffffffff8111156200034b576200034a620000b5565b5b62000357825462000113565b6200036482828562000289565b600060209050601f8311600181146200039c576000841562000387578287015190505b62000393858262000306565b86555062000403565b601f198416620003ac8662000148565b60005b82811015620003d657848901518255600182019150602085019450602081019050620003af565b86831015620003f65784890151620003f2601f891682620002e6565b8355505b6001600288020188555050505b505050505050565b61332a806200041b6000396000f3fe6080604052600436106101095760003560e01c80636352211e11610095578063a22cb46511610064578063a22cb465146103a3578063b88d4fde146103cc578063c87b56dd146103f5578063d85d3d2714610432578063e985e9c51461044e57610109565b80636352211e146102d35780636817c76c1461031057806370a082311461033b57806395d89b411461037857610109565b806318160ddd116100dc57806318160ddd146101dc57806323b872dd146102075780632f745c591461023057806342842e0e1461026d5780634f6ccce71461029657610109565b806301ffc9a71461010e57806306fdde031461014b578063081812fc14610176578063095ea7b3146101b3575b600080fd5b34801561011a57600080fd5b5061013560048036038101906101309190611f69565b61048b565b6040516101429190611fb1565b60405180910390f35b34801561015757600080fd5b5061016061049d565b60405161016d919061205c565b60405180910390f35b34801561018257600080fd5b5061019d600480360381019061019891906120b4565b61052f565b6040516101aa9190612122565b60405180910390f35b3480156101bf57600080fd5b506101da60048036038101906101d59190612169565b610575565b005b3480156101e857600080fd5b506101f161068c565b6040516101fe91906121b8565b60405180910390f35b34801561021357600080fd5b5061022e600480360381019061022991906121d3565b610699565b005b34801561023c57600080fd5b5061025760048036038101906102529190612169565b6106f9565b60405161026491906121b8565b60405180910390f35b34801561027957600080fd5b50610294600480360381019061028f91906121d3565b61079e565b005b3480156102a257600080fd5b506102bd60048036038101906102b891906120b4565b6107be565b6040516102ca91906121b8565b60405180910390f35b3480156102df57600080fd5b506102fa60048036038101906102f591906120b4565b61082f565b6040516103079190612122565b60405180910390f35b34801561031c57600080fd5b506103256108e0565b60405161033291906121b8565b60405180910390f35b34801561034757600080fd5b50610362600480360381019061035d9190612226565b6108e5565b60405161036f91906121b8565b60405180910390f35b34801561038457600080fd5b5061038d61099c565b60405161039a919061205c565b60405180910390f35b3480156103af57600080fd5b506103ca60048036038101906103c5919061227f565b610a2e565b005b3480156103d857600080fd5b506103f360048036038101906103ee91906123f4565b610a44565b005b34801561040157600080fd5b5061041c600480360381019061041791906120b4565b610aa6565b604051610429919061205c565b60405180910390f35b61044c60048036038101906104479190612518565b610ab8565b005b34801561045a57600080fd5b5061047560048036038101906104709190612561565b610adc565b6040516104829190611fb1565b60405180910390f35b600061049682610b70565b9050919050565b6060600080546104ac906125d0565b80601f01602080910402602001604051908101604052809291908181526020018280546104d8906125d0565b80156105255780601f106104fa57610100808354040283529160200191610525565b820191906000526020600020905b81548152906001019060200180831161050857829003601f168201915b5050505050905090565b600061053a82610bea565b6004600083815260200190815260200160002060009054906101000a900473ffffffffffffffffffffffffffffffffffffffff169050919050565b60006105808261082f565b90508073ffffffffffffffffffffffffffffffffffffffff168373ffffffffffffffffffffffffffffffffffffffff16036105f0576040517f08c379a00000000000000000000000000000000000000000000000000000000081526004016105e790612673565b60405180910390fd5b8073ffffffffffffffffffffffffffffffffffffffff1661060f610c35565b73ffffffffffffffffffffffffffffffffffffffff16148061063e575061063d81610638610c35565b610adc565b5b61067d576040517f08c379a000000000000000000000000000000000000000000000000000000000815260040161067490612705565b60405180910390fd5b6106878383610c3d565b505050565b6000600880549050905090565b6106aa6106a4610c35565b82610cf6565b6106e9576040517f08c379a00000000000000000000000000000000000000000000000000000000081526004016106e090612797565b60405180910390fd5b6106f4838383610d8b565b505050565b6000610704836108e5565b8210610745576040517f08c379a000000000000000000000000000000000000000000000000000000000815260040161073c90612829565b60405180910390fd5b600660008473ffffffffffffffffffffffffffffffffffffffff1673ffffffffffffffffffffffffffffffffffffffff168152602001908152602001600020600083815260200190815260200160002054905092915050565b6107b983838360405180602001604052806000815250610a44565b505050565b60006107c861068c565b8210610809576040517f08c379a0000000000000000000000000000000000000000000000000000000008152600401610800906128bb565b60405180910390fd5b6008828154811061081d5761081c6128db565b5b90600052602060002001549050919050565b6000806002600084815260200190815260200160002060009054906101000a900473ffffffffffffffffffffffffffffffffffffffff169050600073ffffffffffffffffffffffffffffffffffffffff168173ffffffffffffffffffffffffffffffffffffffff16036108d7576040517f08c379a00000000000000000000000000000000000000000000000000000000081526004016108ce90612956565b60405180910390fd5b80915050919050565b600081565b60008073ffffffffffffffffffffffffffffffffffffffff168273ffffffffffffffffffffffffffffffffffffffff1603610955576040517f08c379a000000000000000000000000000000000000000000000000000000000815260040161094c906129e8565b60405180910390fd5b600360008373ffffffffffffffffffffffffffffffffffffffff1673ffffffffffffffffffffffffffffffffffffffff168152602001908152602001600020549050919050565b6060600180546109ab906125d0565b80601f01602080910402602001604051908101604052809291908181526020018280546109d7906125d0565b8015610a245780601f106109f957610100808354040283529160200191610a24565b820191906000526020600020905b815481529060010190602001808311610a0757829003601f168201915b5050505050905090565b610a40610a39610c35565b8383610ff1565b5050565b610a55610a4f610c35565b83610cf6565b610a94576040517f08c379a0000000000000000000000000000000000000000000000000000000008152600401610a8b90612797565b60405180910390fd5b610aa08484848461115d565b50505050565b6060610ab1826111b9565b9050919050565b6000610ac261068c565b9050610ace33826112cb565b610ad881836112e9565b5050565b6000600560008473ffffffffffffffffffffffffffffffffffffffff1673ffffffffffffffffffffffffffffffffffffffff16815260200190815260200160002060008373ffffffffffffffffffffffffffffffffffffffff1673ffffffffffffffffffffffffffffffffffffffff16815260200190815260200160002060009054906101000a900460ff16905092915050565b60007f780e9d63000000000000000000000000000000000000000000000000000000007bffffffffffffffffffffffffffffffffffffffffffffffffffffffff1916827bffffffffffffffffffffffffffffffffffffffffffffffffffffffff19161480610be35750610be282611356565b5b9050919050565b610bf381611438565b610c32576040517f08c379a0000000000000000000000000000000000000000000000000000000008152600401610c2990612956565b60405180910390fd5b50565b600033905090565b816004600083815260200190815260200160002060006101000a81548173ffffffffffffffffffffffffffffffffffffffff021916908373ffffffffffffffffffffffffffffffffffffffff160217905550808273ffffffffffffffffffffffffffffffffffffffff16610cb08361082f565b73ffffffffffffffffffffffffffffffffffffffff167f8c5be1e5ebec7d5bd14f71427d1e84f3dd0314c0f7b2291e5b200ac8c7c3b92560405160405180910390a45050565b600080610d028361082f565b90508073ffffffffffffffffffffffffffffffffffffffff168473ffffffffffffffffffffffffffffffffffffffff161480610d445750610d438185610adc565b5b80610d8257508373ffffffffffffffffffffffffffffffffffffffff16610d6a8461052f565b73ffffffffffffffffffffffffffffffffffffffff16145b91505092915050565b8273ffffffffffffffffffffffffffffffffffffffff16610dab8261082f565b73ffffffffffffffffffffffffffffffffffffffff1614610e01576040517f08c379a0000000000000000000000000000000000000000000000000000000008152600401610df890612a7a565b60405180910390fd5b600073ffffffffffffffffffffffffffffffffffffffff168273ffffffffffffffffffffffffffffffffffffffff1603610e70576040517f08c379a0000000000000000000000000000000000000000000000000000000008152600401610e6790612b0c565b60405180910390fd5b610e7b8383836114a4565b610e86600082610c3d565b6001600360008573ffffffffffffffffffffffffffffffffffffffff1673ffffffffffffffffffffffffffffffffffffffff1681526020019081526020016000206000828254610ed69190612b5b565b925050819055506001600360008473ffffffffffffffffffffffffffffffffffffffff1673ffffffffffffffffffffffffffffffffffffffff1681526020019081526020016000206000828254610f2d9190612b8f565b92505081905550816002600083815260200190815260200160002060006101000a81548173ffffffffffffffffffffffffffffffffffffffff021916908373ffffffffffffffffffffffffffffffffffffffff160217905550808273ffffffffffffffffffffffffffffffffffffffff168473ffffffffffffffffffffffffffffffffffffffff167fddf252ad1be2c89b69c2b068fc378daa952ba7f163c4a11628f55a4df523b3ef60405160405180910390a4610fec8383836114b4565b505050565b8173ffffffffffffffffffffffffffffffffffffffff168373ffffffffffffffffffffffffffffffffffffffff160361105f576040517f08c379a000000000000000000000000000000000000000000000000000000000815260040161105690612c0f565b60405180910390fd5b80600560008573ffffffffffffffffffffffffffffffffffffffff1673ffffffffffffffffffffffffffffffffffffffff16815260200190815260200160002060008473ffffffffffffffffffffffffffffffffffffffff1673ffffffffffffffffffffffffffffffffffffffff16815260200190815260200160002060006101000a81548160ff0219169083151502179055508173ffffffffffffffffffffffffffffffffffffffff168373ffffffffffffffffffffffffffffffffffffffff167f17307eab39ab6107e8899845ad3d59bd9653f200f220920489ca2b5937696c31836040516111509190611fb1565b60405180910390a3505050565b611168848484610d8b565b611174848484846114b9565b6111b3576040517f08c379a00000000000000000000000000000000000000000000000000000000081526004016111aa90612ca1565b60405180910390fd5b50505050565b60606111c482610bea565b6000600a600084815260200190815260200160002080546111e4906125d0565b80601f0160208091040260200160405190810160405280929190818152602001828054611210906125d0565b801561125d5780601f106112325761010080835404028352916020019161125d565b820191906000526020600020905b81548152906001019060200180831161124057829003601f168201915b50505050509050600061126e611640565b905060008151036112835781925050506112c6565b6000825111156112b85780826040516020016112a0929190612cfd565b604051602081830303815290604052925050506112c6565b6112c184611657565b925050505b919050565b6112e58282604051806020016040528060008152506116bf565b5050565b6112f282611438565b611331576040517f08c379a000000000000000000000000000000000000000000000000000000000815260040161132890612d93565b60405180910390fd5b80600a600084815260200190815260200160002090816113519190612f5f565b505050565b60007f80ac58cd000000000000000000000000000000000000000000000000000000007bffffffffffffffffffffffffffffffffffffffffffffffffffffffff1916827bffffffffffffffffffffffffffffffffffffffffffffffffffffffff1916148061142157507f5b5e139f000000000000000000000000000000000000000000000000000000007bffffffffffffffffffffffffffffffffffffffffffffffffffffffff1916827bffffffffffffffffffffffffffffffffffffffffffffffffffffffff1916145b8061143157506114308261171a565b5b9050919050565b60008073ffffffffffffffffffffffffffffffffffffffff166002600084815260200190815260200160002060009054906101000a900473ffffffffffffffffffffffffffffffffffffffff1673ffffffffffffffffffffffffffffffffffffffff1614159050919050565b6114af838383611784565b505050565b505050565b60006114da8473ffffffffffffffffffffffffffffffffffffffff16611896565b15611633578373ffffffffffffffffffffffffffffffffffffffff1663150b7a02611503610c35565b8786866040518563ffffffff1660e01b81526004016115259493929190613086565b6020604051808303816000875af192505050801561156157506040513d601f19601f8201168201806040525081019061155e91906130e7565b60015b6115e3573d8060008114611591576040519150601f19603f3d011682016040523d82523d6000602084013e611596565b606091505b5060008151036115db576040517f08c379a00000000000000000000000000000000000000000000000000000000081526004016115d290612ca1565b60405180910390fd5b805181602001fd5b63150b7a0260e01b7bffffffffffffffffffffffffffffffffffffffffffffffffffffffff1916817bffffffffffffffffffffffffffffffffffffffffffffffffffffffff191614915050611638565b600190505b949350505050565b606060405180602001604052806000815250905090565b606061166282610bea565b600061166c611640565b9050600081511161168c57604051806020016040528060008152506116b7565b80611696846118b9565b6040516020016116a7929190612cfd565b6040516020818303038152906040525b915050919050565b6116c98383611a19565b6116d660008484846114b9565b611715576040517f08c379a000000000000000000000000000000000000000000000000000000000815260040161170c90612ca1565b60405180910390fd5b505050565b60007f01ffc9a7000000000000000000000000000000000000000000000000000000007bffffffffffffffffffffffffffffffffffffffffffffffffffffffff1916827bffffffffffffffffffffffffffffffffffffffffffffffffffffffff1916149050919050565b61178f838383611bf2565b600073ffffffffffffffffffffffffffffffffffffffff168373ffffffffffffffffffffffffffffffffffffffff16036117d1576117cc81611bf7565b611810565b8173ffffffffffffffffffffffffffffffffffffffff168373ffffffffffffffffffffffffffffffffffffffff161461180f5761180e8382611c40565b5b5b600073ffffffffffffffffffffffffffffffffffffffff168273ffffffffffffffffffffffffffffffffffffffff16036118525761184d81611dad565b611891565b8273ffffffffffffffffffffffffffffffffffffffff168273ffffffffffffffffffffffffffffffffffffffff16146118905761188f8282611e7e565b5b5b505050565b6000808273ffffffffffffffffffffffffffffffffffffffff163b119050919050565b606060008203611900576040518060400160405280600181526020017f30000000000000000000000000000000000000000000000000000000000000008152509050611a14565b600082905060005b6000821461193257808061191b90613114565b915050600a8261192b919061318b565b9150611908565b60008167ffffffffffffffff81111561194e5761194d6122c9565b5b6040519080825280601f01601f1916602001820160405280156119805781602001600182028036833780820191505090505b5090505b60008514611a0d576001826119999190612b5b565b9150600a856119a891906131bc565b60306119b49190612b8f565b60f81b8183815181106119ca576119c96128db565b5b60200101907effffffffffffffffffffffffffffffffffffffffffffffffffffffffffffff1916908160001a905350600a85611a06919061318b565b9450611984565b8093505050505b919050565b600073ffffffffffffffffffffffffffffffffffffffff168273ffffffffffffffffffffffffffffffffffffffff1603611a88576040517f08c379a0000000000000000000000000000000000000000000000000000000008152600401611a7f90613239565b60405180910390fd5b611a9181611438565b15611ad1576040517f08c379a0000000000000000000000000000000000000000000000000000000008152600401611ac8906132a5565b60405180910390fd5b611add600083836114a4565b6001600360008473ffffffffffffffffffffffffffffffffffffffff1673ffffffffffffffffffffffffffffffffffffffff1681526020019081526020016000206000828254611b2d9190612b8f565b92505081905550816002600083815260200190815260200160002060006101000a81548173ffffffffffffffffffffffffffffffffffffffff021916908373ffffffffffffffffffffffffffffffffffffffff160217905550808273ffffffffffffffffffffffffffffffffffffffff16600073ffffffffffffffffffffffffffffffffffffffff167fddf252ad1be2c89b69c2b068fc378daa952ba7f163c4a11628f55a4df523b3ef60405160405180910390a4611bee600083836114b4565b5050565b505050565b6008805490506009600083815260200190815260200160002081905550600881908060018154018082558091505060019003906000526020600020016000909190919091505550565b60006001611c4d846108e5565b611c579190612b5b565b9050600060076000848152602001908152602001600020549050818114611d3c576000600660008673ffffffffffffffffffffffffffffffffffffffff1673ffffffffffffffffffffffffffffffffffffffff168152602001908152602001600020600084815260200190815260200160002054905080600660008773ffffffffffffffffffffffffffffffffffffffff1673ffffffffffffffffffffffffffffffffffffffff168152602001908152602001600020600084815260200190815260200160002081905550816007600083815260200190815260200160002081905550505b6007600084815260200190815260200160002060009055600660008573ffffffffffffffffffffffffffffffffffffffff1673ffffffffffffffffffffffffffffffffffffffff16815260200190815260200160002060008381526020019081526020016000206000905550505050565b60006001600880549050611dc19190612b5b565b9050600060096000848152602001908152602001600020549050600060088381548110611df157611df06128db565b5b906000526020600020015490508060088381548110611e1357611e126128db565b5b906000526020600020018190555081600960008381526020019081526020016000208190555060096000858152602001908152602001600020600090556008805480611e6257611e616132c5565b5b6001900381819060005260206000200160009055905550505050565b6000611e89836108e5565b905081600660008573ffffffffffffffffffffffffffffffffffffffff1673ffffffffffffffffffffffffffffffffffffffff168152602001908152602001600020600083815260200190815260200160002081905550806007600084815260200190815260200160002081905550505050565b6000604051905090565b600080fd5b600080fd5b60007fffffffff0000000000000000000000000000000000000000000000000000000082169050919050565b611f4681611f11565b8114611f5157600080fd5b50565b600081359050611f6381611f3d565b92915050565b600060208284031215611f7f57611f7e611f07565b5b6000611f8d84828501611f54565b91505092915050565b60008115159050919050565b611fab81611f96565b82525050565b6000602082019050611fc66000830184611fa2565b92915050565b600081519050919050565b600082825260208201905092915050565b60005b83811015612006578082015181840152602081019050611feb565b60008484015250505050565b6000601f19601f8301169050919050565b600061202e82611fcc565b6120388185611fd7565b9350612048818560208601611fe8565b61205181612012565b840191505092915050565b600060208201905081810360008301526120768184612023565b905092915050565b6000819050919050565b6120918161207e565b811461209c57600080fd5b50565b6000813590506120ae81612088565b92915050565b6000602082840312156120ca576120c9611f07565b5b60006120d88482850161209f565b91505092915050565b600073ffffffffffffffffffffffffffffffffffffffff82169050919050565b600061210c826120e1565b9050919050565b61211c81612101565b82525050565b60006020820190506121376000830184612113565b92915050565b61214681612101565b811461215157600080fd5b50565b6000813590506121638161213d565b92915050565b600080604083850312156121805761217f611f07565b5b600061218e85828601612154565b925050602061219f8582860161209f565b9150509250929050565b6121b28161207e565b82525050565b60006020820190506121cd60008301846121a9565b92915050565b6000806000606084860312156121ec576121eb611f07565b5b60006121fa86828701612154565b935050602061220b86828701612154565b925050604061221c8682870161209f565b9150509250925092565b60006020828403121561223c5761223b611f07565b5b600061224a84828501612154565b91505092915050565b61225c81611f96565b811461226757600080fd5b50565b60008135905061227981612253565b92915050565b6000806040838503121561229657612295611f07565b5b60006122a485828601612154565b92505060206122b58582860161226a565b9150509250929050565b600080fd5b600080fd5b7f4e487b7100000000000000000000000000000000000000000000000000000000600052604160045260246000fd5b61230182612012565b810181811067ffffffffffffffff821117156123205761231f6122c9565b5b80604052505050565b6000612333611efd565b905061233f82826122f8565b919050565b600067ffffffffffffffff82111561235f5761235e6122c9565b5b61236882612012565b9050602081019050919050565b82818337600083830152505050565b600061239761239284612344565b612329565b9050828152602081018484840111156123b3576123b26122c4565b5b6123be848285612375565b509392505050565b600082601f8301126123db576123da6122bf565b5b81356123eb848260208601612384565b91505092915050565b6000806000806080858703121561240e5761240d611f07565b5b600061241c87828801612154565b945050602061242d87828801612154565b935050604061243e8782880161209f565b925050606085013567ffffffffffffffff81111561245f5761245e611f0c565b5b61246b878288016123c6565b91505092959194509250565b600067ffffffffffffffff821115612492576124916122c9565b5b61249b82612012565b9050602081019050919050565b60006124bb6124b684612477565b612329565b9050828152602081018484840111156124d7576124d66122c4565b5b6124e2848285612375565b509392505050565b600082601f8301126124ff576124fe6122bf565b5b813561250f8482602086016124a8565b91505092915050565b60006020828403121561252e5761252d611f07565b5b600082013567ffffffffffffffff81111561254c5761254b611f0c565b5b612558848285016124ea565b91505092915050565b6000806040838503121561257857612577611f07565b5b600061258685828601612154565b925050602061259785828601612154565b9150509250929050565b7f4e487b7100000000000000000000000000000000000000000000000000000000600052602260045260246000fd5b600060028204905060018216806125e857607f821691505b6020821081036125fb576125fa6125a1565b5b50919050565b7f4552433732313a20617070726f76616c20746f2063757272656e74206f776e6560008201527f7200000000000000000000000000000000000000000000000000000000000000602082015250565b600061265d602183611fd7565b915061266882612601565b604082019050919050565b6000602082019050818103600083015261268c81612650565b9050919050565b7f4552433732313a20617070726f76652063616c6c6572206973206e6f7420746f60008201527f6b656e206f776e6572206e6f7220617070726f76656420666f7220616c6c0000602082015250565b60006126ef603e83611fd7565b91506126fa82612693565b604082019050919050565b6000602082019050818103600083015261271e816126e2565b9050919050565b7f4552433732313a2063616c6c6572206973206e6f7420746f6b656e206f776e6560008201527f72206e6f7220617070726f766564000000000000000000000000000000000000602082015250565b6000612781602e83611fd7565b915061278c82612725565b604082019050919050565b600060208201905081810360008301526127b081612774565b9050919050565b7f455243373231456e756d657261626c653a206f776e657220696e646578206f7560008201527f74206f6620626f756e6473000000000000000000000000000000000000000000602082015250565b6000612813602b83611fd7565b915061281e826127b7565b604082019050919050565b6000602082019050818103600083015261284281612806565b9050919050565b7f455243373231456e756d657261626c653a20676c6f62616c20696e646578206f60008201527f7574206f6620626f756e64730000000000000000000000000000000000000000602082015250565b60006128a5602c83611fd7565b91506128b082612849565b604082019050919050565b600060208201905081810360008301526128d481612898565b9050919050565b7f4e487b7100000000000000000000000000000000000000000000000000000000600052603260045260246000fd5b7f4552433732313a20696e76616c696420746f6b656e2049440000000000000000600082015250565b6000612940601883611fd7565b915061294b8261290a565b602082019050919050565b6000602082019050818103600083015261296f81612933565b9050919050565b7f4552433732313a2061646472657373207a65726f206973206e6f74206120766160008201527f6c6964206f776e65720000000000000000000000000000000000000000000000602082015250565b60006129d2602983611fd7565b91506129dd82612976565b604082019050919050565b60006020820190508181036000830152612a01816129c5565b9050919050565b7f4552433732313a207472616e736665722066726f6d20696e636f72726563742060008201527f6f776e6572000000000000000000000000000000000000000000000000000000602082015250565b6000612a64602583611fd7565b9150612a6f82612a08565b604082019050919050565b60006020820190508181036000830152612a9381612a57565b9050919050565b7f4552433732313a207472616e7366657220746f20746865207a65726f2061646460008201527f7265737300000000000000000000000000000000000000000000000000000000602082015250565b6000612af6602483611fd7565b9150612b0182612a9a565b604082019050919050565b60006020820190508181036000830152612b2581612ae9565b9050919050565b7f4e487b7100000000000000000000000000000000000000000000000000000000600052601160045260246000fd5b6000612b668261207e565b9150612b718361207e565b9250828203905081811115612b8957612b88612b2c565b5b92915050565b6000612b9a8261207e565b9150612ba58361207e565b9250828201905080821115612bbd57612bbc612b2c565b5b92915050565b7f4552433732313a20617070726f766520746f2063616c6c657200000000000000600082015250565b6000612bf9601983611fd7565b9150612c0482612bc3565b602082019050919050565b60006020820190508181036000830152612c2881612bec565b9050919050565b7f4552433732313a207472616e7366657220746f206e6f6e20455243373231526560008201527f63656976657220696d706c656d656e7465720000000000000000000000000000602082015250565b6000612c8b603283611fd7565b9150612c9682612c2f565b604082019050919050565b60006020820190508181036000830152612cba81612c7e565b9050919050565b600081905092915050565b6000612cd782611fcc565b612ce18185612cc1565b9350612cf1818560208601611fe8565b80840191505092915050565b6000612d098285612ccc565b9150612d158284612ccc565b91508190509392505050565b7f45524337323155524953746f726167653a2055524920736574206f66206e6f6e60008201527f6578697374656e7420746f6b656e000000000000000000000000000000000000602082015250565b6000612d7d602e83611fd7565b9150612d8882612d21565b604082019050919050565b60006020820190508181036000830152612dac81612d70565b9050919050565b60008190508160005260206000209050919050565b60006020601f8301049050919050565b600082821b905092915050565b600060088302612e157fffffffffffffffffffffffffffffffffffffffffffffffffffffffffffffffff82612dd8565b612e1f8683612dd8565b95508019841693508086168417925050509392505050565b6000819050919050565b6000612e5c612e57612e528461207e565b612e37565b61207e565b9050919050565b6000819050919050565b612e7683612e41565b612e8a612e8282612e63565b848454612de5565b825550505050565b600090565b612e9f612e92565b612eaa818484612e6d565b505050565b5b81811015612ece57612ec3600082612e97565b600181019050612eb0565b5050565b601f821115612f1357612ee481612db3565b612eed84612dc8565b81016020851015612efc578190505b612f10612f0885612dc8565b830182612eaf565b50505b505050565b600082821c905092915050565b6000612f3660001984600802612f18565b1980831691505092915050565b6000612f4f8383612f25565b9150826002028217905092915050565b612f6882611fcc565b67ffffffffffffffff811115612f8157612f806122c9565b5b612f8b82546125d0565b612f96828285612ed2565b600060209050601f831160018114612fc95760008415612fb7578287015190505b612fc18582612f43565b865550613029565b601f198416612fd786612db3565b60005b82811015612fff57848901518255600182019150602085019450602081019050612fda565b8683101561301c5784890151613018601f891682612f25565b8355505b6001600288020188555050505b505050505050565b600081519050919050565b600082825260208201905092915050565b600061305882613031565b613062818561303c565b9350613072818560208601611fe8565b61307b81612012565b840191505092915050565b600060808201905061309b6000830187612113565b6130a86020830186612113565b6130b560408301856121a9565b81810360608301526130c7818461304d565b905095945050505050565b6000815190506130e181611f3d565b92915050565b6000602082840312156130fd576130fc611f07565b5b600061310b848285016130d2565b91505092915050565b600061311f8261207e565b91507fffffffffffffffffffffffffffffffffffffffffffffffffffffffffffffffff820361315157613150612b2c565b5b600182019050919050565b7f4e487b7100000000000000000000000000000000000000000000000000000000600052601260045260246000fd5b60006131968261207e565b91506131a18361207e565b9250826131b1576131b061315c565b5b828204905092915050565b60006131c78261207e565b91506131d28361207e565b9250826131e2576131e161315c565b5b828206905092915050565b7f4552433732313a206d696e7420746f20746865207a65726f2061646472657373600082015250565b6000613223602083611fd7565b915061322e826131ed565b602082019050919050565b6000602082019050818103600083015261325281613216565b9050919050565b7f4552433732313a20746f6b656e20616c7265616479206d696e74656400000000600082015250565b600061328f601c83611fd7565b915061329a82613259565b602082019050919050565b600060208201905081810360008301526132be81613282565b9050919050565b7f4e487b7100000000000000000000000000000000000000000000000000000000600052603160045260246000fdfea2646970667358221220251d5b08365de787ef7f3c3a145f886f5eefd01d1581b50fcfeb55685dccbeff64736f6c63430008110033",
  "immutableReferences": {},
  "source": "// SPDX-License-Identifier: MIT\npragma solidity ^0.8.0;\n\nimport \"@openzeppelin/contracts/token/ERC721/extensions/ERC721Enumerable.sol\";\nimport \"@openzeppelin/contracts/token/ERC721/extensions/ERC721URIStorage.sol\";\nimport \"@openzeppelin/contracts/token/ERC721/ERC721.sol\";\nimport \"@openzeppelin/contracts/utils/math/SafeMath.sol\";\n\ncontract MintNFT is ERC721, ERC721Enumerable, ERC721URIStorage {\n    using SafeMath for uint256;\n    uint public constant mintPrice = 0;\n\n    constructor() ERC721(\"SustainDAO\", \"SDAO\") {}\n\n\n    function _beforeTokenTransfer(address from, address to, uint256 tokenId)\n        internal\n        override(ERC721, ERC721Enumerable)\n    {\n        super._beforeTokenTransfer(from, to, tokenId);\n    }\n    function _burn(uint256 tokenId) internal override(ERC721, ERC721URIStorage) {\n        super._burn(tokenId);\n    }\n    function tokenURI(uint256 tokenId)\n        public\n        view\n        override(ERC721, ERC721URIStorage)\n        returns (string memory)\n    {\n        return super.tokenURI(tokenId);\n    }\n    function supportsInterface(bytes4 interfaceId)\n        public\n        view\n        override(ERC721, ERC721Enumerable)\n        returns (bool)\n    {\n        return super.supportsInterface(interfaceId);\n    }\n    function mint(string memory _uri) public payable {\n        uint256 mintIndex = totalSupply();\n        _safeMint(msg.sender, mintIndex);\n        _setTokenURI(mintIndex, _uri);\n    }\n}",
  "sourcePath": "/Users/rahulbansal/Desktop/SustainDAO/contracts/Mint.sol",
  "compiler": {
    "name": "solc",
    "version": "0.8.17+commit.8df45f5f.Emscripten.clang"
  },
  "schemaVersion": "3.4.8",
  "updatedAt": "2022-11-18T17:49:28.259Z",
  "networkType": "ethereum",
  "devdoc": {
    "kind": "dev",
    "methods": {
      "approve(address,uint256)": {
        "details": "See {IERC721-approve}."
      },
      "balanceOf(address)": {
        "details": "See {IERC721-balanceOf}."
      },
      "getApproved(uint256)": {
        "details": "See {IERC721-getApproved}."
      },
      "isApprovedForAll(address,address)": {
        "details": "See {IERC721-isApprovedForAll}."
      },
      "name()": {
        "details": "See {IERC721Metadata-name}."
      },
      "ownerOf(uint256)": {
        "details": "See {IERC721-ownerOf}."
      },
      "safeTransferFrom(address,address,uint256)": {
        "details": "See {IERC721-safeTransferFrom}."
      },
      "safeTransferFrom(address,address,uint256,bytes)": {
        "details": "See {IERC721-safeTransferFrom}."
      },
      "setApprovalForAll(address,bool)": {
        "details": "See {IERC721-setApprovalForAll}."
      },
      "symbol()": {
        "details": "See {IERC721Metadata-symbol}."
      },
      "tokenByIndex(uint256)": {
        "details": "See {IERC721Enumerable-tokenByIndex}."
      },
      "tokenOfOwnerByIndex(address,uint256)": {
        "details": "See {IERC721Enumerable-tokenOfOwnerByIndex}."
      },
      "totalSupply()": {
        "details": "See {IERC721Enumerable-totalSupply}."
      },
      "transferFrom(address,address,uint256)": {
        "details": "See {IERC721-transferFrom}."
      }
    },
    "version": 1
  },
  "userdoc": {
    "kind": "user",
    "methods": {},
    "version": 1
  }
}