{
  "contractName": "PriceDataFeed",
  "abi": [
    {
      "inputs": [],
      "stateMutability": "nonpayable",
      "type": "constructor"
    },
    {
      "inputs": [],
      "name": "getLatestPriceBTC",
      "outputs": [
        {
          "internalType": "int256",
          "name": "",
          "type": "int256"
        }
      ],
      "stateMutability": "view",
      "type": "function",
      "constant": true
    },
    {
      "inputs": [],
      "name": "getLatestPriceETH",
      "outputs": [
        {
          "internalType": "int256",
          "name": "",
          "type": "int256"
        }
      ],
      "stateMutability": "view",
      "type": "function",
      "constant": true
    },
    {
      "inputs": [],
      "name": "getLatestPriceMATIC",
      "outputs": [
        {
          "internalType": "int256",
          "name": "",
          "type": "int256"
        }
      ],
      "stateMutability": "view",
      "type": "function",
      "constant": true
    },
    {
      "inputs": [],
      "name": "getLatestPriceUSDC",
      "outputs": [
        {
          "internalType": "int256",
          "name": "",
          "type": "int256"
        }
      ],
      "stateMutability": "view",
      "type": "function",
      "constant": true
    },
    {
      "inputs": [],
      "name": "getLatestPriceLINK",
      "outputs": [
        {
          "internalType": "int256",
          "name": "",
          "type": "int256"
        }
      ],
      "stateMutability": "view",
      "type": "function",
      "constant": true
    }
  ],
  "bytecode": "0x608060405234801561001057600080fd5b50727a22900a3b98143368bd5906f8e17e9867581b6000806101000a81548173ffffffffffffffffffffffffffffffffffffffff021916908373ffffffffffffffffffffffffffffffffffffffff160217905550730715a7794a1dc8e42615f059dd6e406a6594651a600160006101000a81548173ffffffffffffffffffffffffffffffffffffffff021916908373ffffffffffffffffffffffffffffffffffffffff16021790555073d0d5e3db44de05e9f294bb0a3beeaf030de24ada600260006101000a81548173ffffffffffffffffffffffffffffffffffffffff021916908373ffffffffffffffffffffffffffffffffffffffff16021790555073572ddec9087154dc5dfbb1546bb62713147e0ab0600360006101000a81548173ffffffffffffffffffffffffffffffffffffffff021916908373ffffffffffffffffffffffffffffffffffffffff160217905550731c2252aeed50e0c9b64bdff2735ee3c932f5c408600460006101000a81548173ffffffffffffffffffffffffffffffffffffffff021916908373ffffffffffffffffffffffffffffffffffffffff1602179055506105a3806101c76000396000f3fe608060405234801561001057600080fd5b50600436106100575760003560e01c80631050d8ad1461005c5780636e34d9291461007a57806379fd79c3146100985780639b523713146100b6578063feac0d91146100d4575b600080fd5b6100646100f2565b604051610071919061042e565b60405180910390f35b610082610193565b60405161008f919061042e565b60405180910390f35b6100a0610234565b6040516100ad919061042e565b60405180910390f35b6100be6102d5565b6040516100cb919061042e565b60405180910390f35b6100dc610374565b6040516100e9919061042e565b60405180910390f35b600080600460009054906101000a900473ffffffffffffffffffffffffffffffffffffffff1673ffffffffffffffffffffffffffffffffffffffff1663feaf968c6040518163ffffffff1660e01b815260040160a060405180830381865afa158015610162573d6000803e3d6000fd5b505050506040513d601f19601f8201168201806040525081019061018691906104f2565b5050509150508091505090565b600080600160009054906101000a900473ffffffffffffffffffffffffffffffffffffffff1673ffffffffffffffffffffffffffffffffffffffff1663feaf968c6040518163ffffffff1660e01b815260040160a060405180830381865afa158015610203573d6000803e3d6000fd5b505050506040513d601f19601f8201168201806040525081019061022791906104f2565b5050509150508091505090565b600080600360009054906101000a900473ffffffffffffffffffffffffffffffffffffffff1673ffffffffffffffffffffffffffffffffffffffff1663feaf968c6040518163ffffffff1660e01b815260040160a060405180830381865afa1580156102a4573d6000803e3d6000fd5b505050506040513d601f19601f820116820180604052508101906102c891906104f2565b5050509150508091505090565b60008060008054906101000a900473ffffffffffffffffffffffffffffffffffffffff1673ffffffffffffffffffffffffffffffffffffffff1663feaf968c6040518163ffffffff1660e01b815260040160a060405180830381865afa158015610343573d6000803e3d6000fd5b505050506040513d601f19601f8201168201806040525081019061036791906104f2565b5050509150508091505090565b600080600260009054906101000a900473ffffffffffffffffffffffffffffffffffffffff1673ffffffffffffffffffffffffffffffffffffffff1663feaf968c6040518163ffffffff1660e01b815260040160a060405180830381865afa1580156103e4573d6000803e3d6000fd5b505050506040513d601f19601f8201168201806040525081019061040891906104f2565b5050509150508091505090565b6000819050919050565b61042881610415565b82525050565b6000602082019050610443600083018461041f565b92915050565b600080fd5b600069ffffffffffffffffffff82169050919050565b61046d8161044e565b811461047857600080fd5b50565b60008151905061048a81610464565b92915050565b61049981610415565b81146104a457600080fd5b50565b6000815190506104b681610490565b92915050565b6000819050919050565b6104cf816104bc565b81146104da57600080fd5b50565b6000815190506104ec816104c6565b92915050565b600080600080600060a0868803121561050e5761050d610449565b5b600061051c8882890161047b565b955050602061052d888289016104a7565b945050604061053e888289016104dd565b935050606061054f888289016104dd565b92505060806105608882890161047b565b915050929550929590935056fea26469706673582212204241caade2da1ac228f732e4063f4c2788984517cb48a3afee0b922e37b00b6964736f6c63430008110033",
  "immutableReferences": {},
  "source": "// SPDX-License-Identifier: MIT\npragma solidity ^0.8.0;\n\nimport \"@chainlink/contracts/src/v0.8/interfaces/AggregatorV3Interface.sol\";\n\ncontract PriceDataFeed{\n\n    AggregatorV3Interface internal priceBTC;\n    AggregatorV3Interface internal priceETH;\n    AggregatorV3Interface internal priceMATIC;\n    AggregatorV3Interface internal priceUSDC;\n    AggregatorV3Interface internal priceLINK;\n\n    constructor() {\n        priceBTC = AggregatorV3Interface(0x007A22900a3B98143368Bd5906f8E17e9867581b);\n\n        priceETH = AggregatorV3Interface(0x0715A7794a1dc8e42615F059dD6e406A6594651A);\n        \n        priceMATIC = AggregatorV3Interface(0xd0D5e3DB44DE05E9F294BB0a3bEEaF030DE24Ada);\n        \n        priceUSDC = AggregatorV3Interface(0x572dDec9087154dC5dfBB1546Bb62713147e0Ab0);\n\n        priceLINK = AggregatorV3Interface(0x1C2252aeeD50e0c9B64bDfF2735Ee3C932F5C408);\n\n    }\n\n    function getLatestPriceBTC() public view returns (int) {\n        (\n            /*uint80 roundID*/,\n            int price,\n            /*uint startedAt*/,\n            /*uint timeStamp*/,\n            /*uint80 answeredInRound*/\n        ) = priceBTC.latestRoundData();\n        return price;\n    }\n\n    function getLatestPriceETH() public view returns (int) {\n        (\n            /*uint80 roundID*/,\n            int price,\n            /*uint startedAt*/,\n            /*uint timeStamp*/,\n            /*uint80 answeredInRound*/\n        ) = priceETH.latestRoundData();\n        return price;\n    }\n\n    function getLatestPriceMATIC() public view returns (int) {\n        (\n            /*uint80 roundID*/,\n            int price,\n            /*uint startedAt*/,\n            /*uint timeStamp*/,\n            /*uint80 answeredInRound*/\n        ) = priceMATIC.latestRoundData();\n        return price;\n    }\n\n    function getLatestPriceUSDC() public view returns (int) {\n        (\n            /*uint80 roundID*/,\n            int price,\n            /*uint startedAt*/,\n            /*uint timeStamp*/,\n            /*uint80 answeredInRound*/\n        ) = priceUSDC.latestRoundData();\n        return price;\n    }\n\n    function getLatestPriceLINK() public view returns (int) {\n        (\n            /*uint80 roundID*/,\n            int price,\n            /*uint startedAt*/,\n            /*uint timeStamp*/,\n            /*uint80 answeredInRound*/\n        ) = priceLINK.latestRoundData();\n        return price;\n    }\n}",
  "sourcePath": "/Users/rahulbansal/Desktop/SustainDAO/contracts/PriceDataFeed.sol",
  "compiler": {
    "name": "solc",
    "version": "0.8.17+commit.8df45f5f.Emscripten.clang"
  },
  "schemaVersion": "3.4.8",
  "updatedAt": "2022-11-18T17:49:28.272Z",
  "networkType": "ethereum",
  "devdoc": {
    "kind": "dev",
    "methods": {},
    "version": 1
  },
  "userdoc": {
    "kind": "user",
    "methods": {},
    "version": 1
  }
}